{
  "contractName": "Election",
  "abi": [
    {
      "inputs": [],
      "stateMutability": "nonpayable",
      "type": "constructor"
    },
    {
      "inputs": [],
      "name": "admin",
      "outputs": [
        {
          "internalType": "address",
          "name": "",
          "type": "address"
        }
      ],
      "stateMutability": "view",
      "type": "function",
      "constant": true
    },
    {
      "inputs": [
        {
          "internalType": "uint256",
          "name": "",
          "type": "uint256"
        }
      ],
      "name": "candidateDetails",
      "outputs": [
        {
          "internalType": "uint256",
          "name": "candidateId",
          "type": "uint256"
        },
        {
          "internalType": "string",
          "name": "header",
          "type": "string"
        },
        {
          "internalType": "string",
          "name": "slogan",
          "type": "string"
        },
        {
          "internalType": "string",
          "name": "logoUrl",
          "type": "string"
        },
        {
          "internalType": "uint256",
          "name": "voteCount",
          "type": "uint256"
        }
      ],
      "stateMutability": "view",
      "type": "function",
      "constant": true
    },
    {
      "inputs": [
        {
          "internalType": "address",
          "name": "",
          "type": "address"
        }
      ],
      "name": "voterDetails",
      "outputs": [
        {
          "internalType": "address",
          "name": "voterAddress",
          "type": "address"
        },
        {
          "internalType": "string",
          "name": "name",
          "type": "string"
        },
        {
          "internalType": "string",
          "name": "phone",
          "type": "string"
        },
        {
          "internalType": "bool",
          "name": "isVerified",
          "type": "bool"
        },
        {
          "internalType": "bool",
          "name": "hasVoted",
          "type": "bool"
        },
        {
          "internalType": "bool",
          "name": "isRegistered",
          "type": "bool"
        }
      ],
      "stateMutability": "view",
      "type": "function",
      "constant": true
    },
    {
      "inputs": [
        {
          "internalType": "uint256",
          "name": "",
          "type": "uint256"
        }
      ],
      "name": "voters",
      "outputs": [
        {
          "internalType": "address",
          "name": "",
          "type": "address"
        }
      ],
      "stateMutability": "view",
      "type": "function",
      "constant": true
    },
    {
      "inputs": [],
      "name": "getAdmin",
      "outputs": [
        {
          "internalType": "address",
          "name": "",
          "type": "address"
        }
      ],
      "stateMutability": "view",
      "type": "function",
      "constant": true
    },
    {
      "inputs": [
        {
          "internalType": "string",
          "name": "_header",
          "type": "string"
        },
        {
          "internalType": "string",
          "name": "_slogan",
          "type": "string"
        },
        {
          "internalType": "string",
          "name": "_logoUrl",
          "type": "string"
        }
      ],
      "name": "addCandidate",
      "outputs": [],
      "stateMutability": "nonpayable",
      "type": "function"
    },
    {
      "inputs": [
        {
          "internalType": "string",
          "name": "_adminName",
          "type": "string"
        },
        {
          "internalType": "string",
          "name": "_adminEmail",
          "type": "string"
        },
        {
          "internalType": "string",
          "name": "_adminTitle",
          "type": "string"
        },
        {
          "internalType": "string",
          "name": "_electionTitle",
          "type": "string"
        },
        {
          "internalType": "string",
          "name": "_organizationTitle",
          "type": "string"
        },
        {
          "internalType": "string",
          "name": "_startDate",
          "type": "string"
        },
        {
          "internalType": "string",
          "name": "_startTime",
          "type": "string"
        },
        {
          "internalType": "string",
          "name": "_endDate",
          "type": "string"
        },
        {
          "internalType": "string",
          "name": "_endTime",
          "type": "string"
        }
      ],
      "name": "setElectionDetails",
      "outputs": [],
      "stateMutability": "nonpayable",
      "type": "function"
    },
    {
      "inputs": [],
      "name": "getElectionDetails",
      "outputs": [
        {
          "internalType": "string",
          "name": "adminName",
          "type": "string"
        },
        {
          "internalType": "string",
          "name": "adminEmail",
          "type": "string"
        },
        {
          "internalType": "string",
          "name": "adminTitle",
          "type": "string"
        },
        {
          "internalType": "string",
          "name": "electionTitle",
          "type": "string"
        },
        {
          "internalType": "string",
          "name": "organizationTitle",
          "type": "string"
        },
        {
          "internalType": "string",
          "name": "startDate",
          "type": "string"
        },
        {
          "internalType": "string",
          "name": "startTime",
          "type": "string"
        },
        {
          "internalType": "string",
          "name": "endDate",
          "type": "string"
        },
        {
          "internalType": "string",
          "name": "endTime",
          "type": "string"
        }
      ],
      "stateMutability": "view",
      "type": "function",
      "constant": true
    },
    {
      "inputs": [],
      "name": "getTotalCandidate",
      "outputs": [
        {
          "internalType": "uint256",
          "name": "",
          "type": "uint256"
        }
      ],
      "stateMutability": "view",
      "type": "function",
      "constant": true
    },
    {
      "inputs": [],
      "name": "getTotalVoter",
      "outputs": [
        {
          "internalType": "uint256",
          "name": "",
          "type": "uint256"
        }
      ],
      "stateMutability": "view",
      "type": "function",
      "constant": true
    },
    {
      "inputs": [
        {
          "internalType": "string",
          "name": "_name",
          "type": "string"
        },
        {
          "internalType": "string",
          "name": "_phone",
          "type": "string"
        }
      ],
      "name": "registerAsVoter",
      "outputs": [],
      "stateMutability": "nonpayable",
      "type": "function"
    },
    {
      "inputs": [
        {
          "internalType": "bool",
          "name": "_verifedStatus",
          "type": "bool"
        },
        {
          "internalType": "address",
          "name": "voterAddress",
          "type": "address"
        }
      ],
      "name": "verifyVoter",
      "outputs": [],
      "stateMutability": "nonpayable",
      "type": "function"
    },
    {
      "inputs": [
        {
          "internalType": "uint256",
          "name": "candidateId",
          "type": "uint256"
        }
      ],
      "name": "vote",
      "outputs": [],
      "stateMutability": "nonpayable",
      "type": "function"
    },
    {
      "inputs": [],
      "name": "endElection",
      "outputs": [],
      "stateMutability": "nonpayable",
      "type": "function"
    },
    {
      "inputs": [],
      "name": "getStart",
      "outputs": [
        {
          "internalType": "bool",
          "name": "",
          "type": "bool"
        }
      ],
      "stateMutability": "view",
      "type": "function",
      "constant": true
    },
    {
      "inputs": [],
      "name": "getEnd",
      "outputs": [
        {
          "internalType": "bool",
          "name": "",
          "type": "bool"
        }
      ],
      "stateMutability": "view",
      "type": "function",
      "constant": true
    }
  ],
  "bytecode": "0x608060405234801561001057600080fd5b50600080546001600160a01b0319163317815560018190556002556003805461ffff19169055611633806100456000396000f3fe608060405234801561001057600080fd5b50600436106101005760003560e01c8063763f386111610097578063da58c7d911610066578063da58c7d9146101fc578063ed836bc31461020f578063f851a4401461022c578063fee0d19a1461023457610100565b8063763f3861146101b95780639f05a36d146101cc578063ad71f8dc146101e1578063c5292c67146101f457610100565b806359f78468116100d357806359f78468146101705780636247e5321461017857806364d198a11461019c5780636e9960c3146101a457610100565b80630121b93f146101055780630b93400e1461011a578063506b8e0a146101385780635938750d1461014b575b600080fd5b61011861011336600461138f565b610247565b005b610122610302565b60405161012f919061152d565b60405180910390f35b610118610146366004611117565b610308565b61015e6101593660046110f6565b61034a565b60405161012f96959493929190611406565b6101186104a3565b61018b61018636600461138f565b6104d1565b60405161012f959493929190611536565b610122610698565b6101ac61069e565b60405161012f91906113f2565b6101186101c7366004611234565b6106ad565b6101d4610822565b60405161012f919061145d565b6101186101ef3660046111b0565b610830565b6101d4610901565b6101ac61020a36600461138f565b61090a565b610217610934565b60405161012f99989796959493929190611468565b6101ac610e77565b61011861024236600461114f565b610e86565b336000908152600f6020526040902060030154610100900460ff161561026c57600080fd5b336000908152600f602052604090206003015460ff16151560011461029057600080fd5b60035460ff1615156001146102a457600080fd5b600354610100900460ff16156102b957600080fd5b60008181526004602081905260408220018054600192906102db908490611588565b9091555050336000908152600f60205260409020600301805461ff00191661010017905550565b60025490565b6000546001600160a01b0316331461031f57600080fd5b6001600160a01b03166000908152600f60205260409020600301805460ff1916911515919091179055565b600f60205260009081526040902080546001820180546001600160a01b039092169291610376906115ac565b80601f01602080910402602001604051908101604052809291908181526020018280546103a2906115ac565b80156103ef5780601f106103c4576101008083540402835291602001916103ef565b820191906000526020600020905b8154815290600101906020018083116103d257829003601f168201915b505050505090806002018054610404906115ac565b80601f0160208091040260200160405190810160405280929190818152602001828054610430906115ac565b801561047d5780601f106104525761010080835404028352916020019161047d565b820191906000526020600020905b81548152906001019060200180831161046057829003601f168201915b5050506003909301549192505060ff808216916101008104821691620100009091041686565b6000546001600160a01b031633146104ba57600080fd5b6003805460ff1961ff001990911661010017169055565b600460205260009081526040902080546001820180549192916104f3906115ac565b80601f016020809104026020016040519081016040528092919081815260200182805461051f906115ac565b801561056c5780601f106105415761010080835404028352916020019161056c565b820191906000526020600020905b81548152906001019060200180831161054f57829003601f168201915b505050505090806002018054610581906115ac565b80601f01602080910402602001604051908101604052809291908181526020018280546105ad906115ac565b80156105fa5780601f106105cf576101008083540402835291602001916105fa565b820191906000526020600020905b8154815290600101906020018083116105dd57829003601f168201915b50505050509080600301805461060f906115ac565b80601f016020809104026020016040519081016040528092919081815260200182805461063b906115ac565b80156106885780601f1061065d57610100808354040283529160200191610688565b820191906000526020600020905b81548152906001019060200180831161066b57829003601f168201915b5050505050908060040154905085565b60015490565b6000546001600160a01b031690565b6000546001600160a01b031633146106c457600080fd5b6040518061012001604052808a81526020018981526020018881526020018781526020018681526020018581526020018481526020018381526020018281525060056000820151816000019080519060200190610722929190610fc0565b50602082810151805161073b9260018501920190610fc0565b5060408201518051610757916002840191602090910190610fc0565b5060608201518051610773916003840191602090910190610fc0565b506080820151805161078f916004840191602090910190610fc0565b5060a082015180516107ab916005840191602090910190610fc0565b5060c082015180516107c7916006840191602090910190610fc0565b5060e082015180516107e3916007840191602090910190610fc0565b506101008201518051610800916008840191602090910190610fc0565b50506003805461ff001960ff1990911660011716905550505050505050505050565b600354610100900460ff1690565b6000546001600160a01b0316331461084757600080fd5b6040805160a081018252600180548083526020808401888152848601889052606085018790526000608086018190529283526004825294909120835181559351805193948594909361089e93908501920190610fc0565b50604082015180516108ba916002840191602090910190610fc0565b50606082015180516108d6916003840191602090910190610fc0565b506080820151816004015590505060018060008282546108f69190611588565b909155505050505050565b60035460ff1690565b600e818154811061091a57600080fd5b6000918252602090912001546001600160a01b0316905081565b6060806060806060806060806060600560000160056001016005600201600560030160056004016005800160056006016005600701600560080188805461097a906115ac565b80601f01602080910402602001604051908101604052809291908181526020018280546109a6906115ac565b80156109f35780601f106109c8576101008083540402835291602001916109f3565b820191906000526020600020905b8154815290600101906020018083116109d657829003601f168201915b50505050509850878054610a06906115ac565b80601f0160208091040260200160405190810160405280929190818152602001828054610a32906115ac565b8015610a7f5780601f10610a5457610100808354040283529160200191610a7f565b820191906000526020600020905b815481529060010190602001808311610a6257829003601f168201915b50505050509750868054610a92906115ac565b80601f0160208091040260200160405190810160405280929190818152602001828054610abe906115ac565b8015610b0b5780601f10610ae057610100808354040283529160200191610b0b565b820191906000526020600020905b815481529060010190602001808311610aee57829003601f168201915b50505050509650858054610b1e906115ac565b80601f0160208091040260200160405190810160405280929190818152602001828054610b4a906115ac565b8015610b975780601f10610b6c57610100808354040283529160200191610b97565b820191906000526020600020905b815481529060010190602001808311610b7a57829003601f168201915b50505050509550848054610baa906115ac565b80601f0160208091040260200160405190810160405280929190818152602001828054610bd6906115ac565b8015610c235780601f10610bf857610100808354040283529160200191610c23565b820191906000526020600020905b815481529060010190602001808311610c0657829003601f168201915b50505050509450838054610c36906115ac565b80601f0160208091040260200160405190810160405280929190818152602001828054610c62906115ac565b8015610caf5780601f10610c8457610100808354040283529160200191610caf565b820191906000526020600020905b815481529060010190602001808311610c9257829003601f168201915b50505050509350828054610cc2906115ac565b80601f0160208091040260200160405190810160405280929190818152602001828054610cee906115ac565b8015610d3b5780601f10610d1057610100808354040283529160200191610d3b565b820191906000526020600020905b815481529060010190602001808311610d1e57829003601f168201915b50505050509250818054610d4e906115ac565b80601f0160208091040260200160405190810160405280929190818152602001828054610d7a906115ac565b8015610dc75780601f10610d9c57610100808354040283529160200191610dc7565b820191906000526020600020905b815481529060010190602001808311610daa57829003601f168201915b50505050509150808054610dda906115ac565b80601f0160208091040260200160405190810160405280929190818152602001828054610e06906115ac565b8015610e535780601f10610e2857610100808354040283529160200191610e53565b820191906000526020600020905b815481529060010190602001808311610e3657829003601f168201915b50505050509050985098509850985098509850985098509850909192939495969798565b6000546001600160a01b031681565b6040805160c08101825233808252602080830186815283850186905260006060850181905260808501819052600160a08601819052938152600f835294909420835181546001600160a01b0319166001600160a01b0390911617815593518051939485949093610efb93908501920190610fc0565b5060408201518051610f17916002840191602090910190610fc0565b50606082015160039091018054608084015160a0909401511515620100000262ff0000199415156101000261ff001994151560ff1990931692909217939093161792909216179055600e80546001818101835560009283527fbb7b4a454dc3493923482f07822329ed19e8244eff582cc204f8554c3620c3fd90910180546001600160a01b031916331790556002805491929091610fb6908490611588565b9091555050505050565b828054610fcc906115ac565b90600052602060002090601f016020900481019282610fee5760008555611034565b82601f1061100757805160ff1916838001178555611034565b82800160010185558215611034579182015b82811115611034578251825591602001919060010190611019565b50611040929150611044565b5090565b5b808211156110405760008155600101611045565b80356001600160a01b038116811461107057600080fd5b919050565b600082601f830112611085578081fd5b813567ffffffffffffffff808211156110a0576110a06115e7565b604051601f8301601f1916810160200182811182821017156110c4576110c46115e7565b6040528281528483016020018610156110db578384fd5b82602086016020830137918201602001929092529392505050565b600060208284031215611107578081fd5b61111082611059565b9392505050565b60008060408385031215611129578081fd5b82358015158114611138578182fd5b915061114660208401611059565b90509250929050565b60008060408385031215611161578182fd5b823567ffffffffffffffff80821115611178578384fd5b61118486838701611075565b93506020850135915080821115611199578283fd5b506111a685828601611075565b9150509250929050565b6000806000606084860312156111c4578081fd5b833567ffffffffffffffff808211156111db578283fd5b6111e787838801611075565b945060208601359150808211156111fc578283fd5b61120887838801611075565b9350604086013591508082111561121d578283fd5b5061122a86828701611075565b9150509250925092565b60008060008060008060008060006101208a8c031215611252578485fd5b893567ffffffffffffffff80821115611269578687fd5b6112758d838e01611075565b9a5060208c013591508082111561128a578687fd5b6112968d838e01611075565b995060408c01359150808211156112ab578687fd5b6112b78d838e01611075565b985060608c01359150808211156112cc578687fd5b6112d88d838e01611075565b975060808c01359150808211156112ed578687fd5b6112f98d838e01611075565b965060a08c013591508082111561130e578586fd5b61131a8d838e01611075565b955060c08c013591508082111561132f578485fd5b61133b8d838e01611075565b945060e08c0135915080821115611350578384fd5b61135c8d838e01611075565b93506101008c0135915080821115611372578283fd5b5061137f8c828d01611075565b9150509295985092959850929598565b6000602082840312156113a0578081fd5b5035919050565b60008151808452815b818110156113cc576020818501810151868301820152016113b0565b818111156113dd5782602083870101525b50601f01601f19169290920160200192915050565b6001600160a01b0391909116815260200190565b6001600160a01b038716815260c06020820181905260009061142a908301886113a7565b828103604084015261143c81886113a7565b951515606084015250509115156080830152151560a0909101529392505050565b901515815260200190565b600061012080835261147c8184018d6113a7565b90508281036020840152611490818c6113a7565b905082810360408401526114a4818b6113a7565b905082810360608401526114b8818a6113a7565b905082810360808401526114cc81896113a7565b905082810360a08401526114e081886113a7565b905082810360c08401526114f481876113a7565b905082810360e084015261150881866113a7565b905082810361010084015261151d81856113a7565b9c9b505050505050505050505050565b90815260200190565b600086825260a0602083015261154f60a08301876113a7565b828103604084015261156181876113a7565b9050828103606084015261157581866113a7565b9150508260808301529695505050505050565b600082198211156115a757634e487b7160e01b81526011600452602481fd5b500190565b6002810460018216806115c057607f821691505b602082108114156115e157634e487b7160e01b600052602260045260246000fd5b50919050565b634e487b7160e01b600052604160045260246000fdfea26469706673582212205730c1f4a7642b78aa5f0543ad2875b0953598eec1903b87e09b92068e72737764736f6c63430008000033",
  "immutableReferences": {},
  "source": "pragma solidity >=0.7.0 <0.9.0;\n\ncontract Election {\n    address public admin;\n    uint256 candidateCount;\n    uint256 voterCount;\n    bool start;\n    bool end;\n\n    constructor() {\n        // Initilizing default values\n        admin = msg.sender;\n        candidateCount = 0;\n        voterCount = 0;\n        start = false;\n        end = false;\n    }\n\n    function getAdmin() public view returns (address) {\n        // Returns account address used to deploy contract (i.e. admin)\n        return admin;\n    }\n\n    modifier onlyAdmin() {\n        // Modifier for only admin access\n        require(msg.sender == admin);\n        _;\n    }\n    // Modeling a candidate\n    struct Candidate {\n        uint256 candidateId;\n        string header;\n        string slogan;\n        string logoUrl;\n        uint256 voteCount;\n    }\n    mapping(uint256 => Candidate) public candidateDetails;\n\n    // Adding new candidates\n    function addCandidate(string memory _header, string memory _slogan, string memory _logoUrl)\n        public\n        // Only admin can add\n        onlyAdmin\n    {\n        Candidate memory newCandidate =\n            Candidate({\n                candidateId: candidateCount,\n                header: _header,\n                slogan: _slogan,\n                logoUrl: _logoUrl,\n                voteCount: 0\n            });\n        candidateDetails[candidateCount] = newCandidate;\n        candidateCount += 1;\n    }\n\n    // Modeling a Election Details\n    struct ElectionDetails {\n        string adminName;\n        string adminEmail;\n        string adminTitle;\n        string electionTitle;\n        string organizationTitle;\n        string startDate;\n        string startTime;\n        string endDate;\n        string endTime;\n    }\n    ElectionDetails electionDetails;\n\n    function setElectionDetails(\n        string memory _adminName,\n        string memory _adminEmail,\n        string memory _adminTitle,\n        string memory _electionTitle,\n        string memory _organizationTitle,\n        string memory _startDate,\n        string memory _startTime,\n        string memory _endDate,\n        string memory _endTime\n    )\n        public\n        // Only admin can add\n        onlyAdmin\n    {\n        electionDetails = ElectionDetails(\n            _adminName,\n            _adminEmail,\n            _adminTitle,\n            _electionTitle,\n            _organizationTitle,\n            _startDate,\n            _startTime,\n            _endDate,\n            _endTime\n        );\n        start = true;\n        end = false;\n    }\n\n    // Get Elections details\n    function getElectionDetails()\n    public\n    view\n    returns(\n        string memory adminName, \n        string memory adminEmail, \n        string memory adminTitle, \n        string memory electionTitle, \n        string memory organizationTitle,\n        string memory startDate,\n        string memory startTime,\n        string memory endDate,\n        string memory endTime\n    ){\n        return(\n            electionDetails.adminName, \n            electionDetails.adminEmail, \n            electionDetails.adminTitle, \n            electionDetails.electionTitle, \n            electionDetails.organizationTitle,\n            electionDetails.startDate,\n            electionDetails.startTime,\n            electionDetails.endDate,\n            electionDetails.endTime\n        );\n    }\n\n    // Get candidates count\n    function getTotalCandidate() public view returns (uint256) {\n        // Returns total number of candidates\n        return candidateCount;\n    }\n\n    // Get voters count\n    function getTotalVoter() public view returns (uint256) {\n        // Returns total number of voters\n        return voterCount;\n    }\n\n    // Modeling a voter\n    struct Voter {\n        address voterAddress;\n        string name;\n        string phone;\n        bool isVerified;\n        bool hasVoted;\n        bool isRegistered;\n    }\n    address[] public voters; // Array of address to store address of voters\n    mapping(address => Voter) public voterDetails;\n\n    // Request to be added as voter\n    function registerAsVoter(string memory _name, string memory _phone) public {\n        Voter memory newVoter =\n            Voter({\n                voterAddress: msg.sender,\n                name: _name,\n                phone: _phone,\n                hasVoted: false,\n                isVerified: false,\n                isRegistered: true\n            });\n        voterDetails[msg.sender] = newVoter;\n        voters.push(msg.sender);\n        voterCount += 1;\n    }\n\n    // Verify voter\n    function verifyVoter(bool _verifedStatus, address voterAddress)\n        public\n        // Only admin can verify\n        onlyAdmin\n    {\n        voterDetails[voterAddress].isVerified = _verifedStatus;\n    }\n\n    // Vote\n    function vote(uint256 candidateId) public {\n        require(voterDetails[msg.sender].hasVoted == false);\n        require(voterDetails[msg.sender].isVerified == true);\n        require(start == true);\n        require(end == false);\n        candidateDetails[candidateId].voteCount += 1;\n        voterDetails[msg.sender].hasVoted = true;\n    }\n\n    // End election\n    function endElection() public onlyAdmin {\n        end = true;\n        start = false;\n    }\n\n    // Get election start and end values\n    function getStart() public view returns (bool) {\n        return start;\n    }\n\n    function getEnd() public view returns (bool) {\n        return end;\n    }\n}\n",
  "sourcePath": "C:\\Users\\Muskan\\Documents\\Voteeee\\blockchain-voting-app-main\\SmartVote\\contracts\\Election.sol",
  "compiler": {
    "name": "solc",
    "version": "0.8.0+commit.c7dfd78e.Emscripten.clang"
  },
  "schemaVersion": "3.4.16",
  "updatedAt": "2025-12-14T15:43:44.964Z",
  "networkType": "ethereum",
  "devdoc": {
    "kind": "dev",
    "methods": {},
    "version": 1
  },
  "userdoc": {
    "kind": "user",
    "methods": {},
    "version": 1
  }
}